{
  "_format": "hh3-artifact-1",
  "contractName": "Box10",
  "sourceName": "contracts/Box10.sol",
  "abi": [
    {
      "inputs": [
        {
          "internalType": "address",
          "name": "_admin",
          "type": "address"
        },
        {
          "internalType": "address",
          "name": "_criticalDistributor",
          "type": "address"
        },
        {
          "internalType": "address",
          "name": "_distributor",
          "type": "address"
        }
      ],
      "stateMutability": "nonpayable",
      "type": "constructor"
    },
    {
      "inputs": [],
      "name": "AccessControlBadConfirmation",
      "type": "error"
    },
    {
      "inputs": [
        {
          "internalType": "address",
          "name": "account",
          "type": "address"
        },
        {
          "internalType": "bytes32",
          "name": "neededRole",
          "type": "bytes32"
        }
      ],
      "name": "AccessControlUnauthorizedAccount",
      "type": "error"
    },
    {
      "inputs": [],
      "name": "ApprovalsNotAllowed",
      "type": "error"
    },
    {
      "inputs": [
        {
          "internalType": "address",
          "name": "spender",
          "type": "address"
        },
        {
          "internalType": "uint256",
          "name": "allowance",
          "type": "uint256"
        },
        {
          "internalType": "uint256",
          "name": "needed",
          "type": "uint256"
        }
      ],
      "name": "ERC20InsufficientAllowance",
      "type": "error"
    },
    {
      "inputs": [
        {
          "internalType": "address",
          "name": "sender",
          "type": "address"
        },
        {
          "internalType": "uint256",
          "name": "balance",
          "type": "uint256"
        },
        {
          "internalType": "uint256",
          "name": "needed",
          "type": "uint256"
        }
      ],
      "name": "ERC20InsufficientBalance",
      "type": "error"
    },
    {
      "inputs": [
        {
          "internalType": "address",
          "name": "approver",
          "type": "address"
        }
      ],
      "name": "ERC20InvalidApprover",
      "type": "error"
    },
    {
      "inputs": [
        {
          "internalType": "address",
          "name": "receiver",
          "type": "address"
        }
      ],
      "name": "ERC20InvalidReceiver",
      "type": "error"
    },
    {
      "inputs": [
        {
          "internalType": "address",
          "name": "sender",
          "type": "address"
        }
      ],
      "name": "ERC20InvalidSender",
      "type": "error"
    },
    {
      "inputs": [
        {
          "internalType": "address",
          "name": "spender",
          "type": "address"
        }
      ],
      "name": "ERC20InvalidSpender",
      "type": "error"
    },
    {
      "inputs": [],
      "name": "InsufficientBalance",
      "type": "error"
    },
    {
      "inputs": [],
      "name": "NonZeroAddress",
      "type": "error"
    },
    {
      "inputs": [],
      "name": "NonZeroValue",
      "type": "error"
    },
    {
      "inputs": [],
      "name": "UserCannotTransferToken",
      "type": "error"
    },
    {
      "anonymous": false,
      "inputs": [
        {
          "indexed": true,
          "internalType": "address",
          "name": "owner",
          "type": "address"
        },
        {
          "indexed": true,
          "internalType": "address",
          "name": "spender",
          "type": "address"
        },
        {
          "indexed": false,
          "internalType": "uint256",
          "name": "value",
          "type": "uint256"
        }
      ],
      "name": "Approval",
      "type": "event"
    },
    {
      "anonymous": false,
      "inputs": [
        {
          "indexed": false,
          "internalType": "address",
          "name": "_from",
          "type": "address"
        },
        {
          "indexed": false,
          "internalType": "uint256",
          "name": "_amount",
          "type": "uint256"
        }
      ],
      "name": "BurnToken",
      "type": "event"
    },
    {
      "anonymous": false,
      "inputs": [
        {
          "indexed": false,
          "internalType": "address",
          "name": "_to",
          "type": "address"
        },
        {
          "indexed": false,
          "internalType": "uint256",
          "name": "_amount",
          "type": "uint256"
        },
        {
          "indexed": false,
          "internalType": "string",
          "name": "_activity",
          "type": "string"
        }
      ],
      "name": "Distribute",
      "type": "event"
    },
    {
      "anonymous": false,
      "inputs": [
        {
          "indexed": false,
          "internalType": "address",
          "name": "_by",
          "type": "address"
        },
        {
          "indexed": false,
          "internalType": "address",
          "name": "_distributor",
          "type": "address"
        }
      ],
      "name": "DistributorRevoked",
      "type": "event"
    },
    {
      "anonymous": false,
      "inputs": [
        {
          "indexed": false,
          "internalType": "address",
          "name": "_from",
          "type": "address"
        },
        {
          "indexed": false,
          "internalType": "address",
          "name": "_to",
          "type": "address"
        },
        {
          "indexed": false,
          "internalType": "uint256",
          "name": "_amount",
          "type": "uint256"
        }
      ],
      "name": "MintToken",
      "type": "event"
    },
    {
      "anonymous": false,
      "inputs": [
        {
          "indexed": false,
          "internalType": "address",
          "name": "_by",
          "type": "address"
        },
        {
          "indexed": false,
          "internalType": "address",
          "name": "_newDistributor",
          "type": "address"
        }
      ],
      "name": "NewDistributorAdded",
      "type": "event"
    },
    {
      "anonymous": false,
      "inputs": [
        {
          "indexed": true,
          "internalType": "bytes32",
          "name": "role",
          "type": "bytes32"
        },
        {
          "indexed": true,
          "internalType": "bytes32",
          "name": "previousAdminRole",
          "type": "bytes32"
        },
        {
          "indexed": true,
          "internalType": "bytes32",
          "name": "newAdminRole",
          "type": "bytes32"
        }
      ],
      "name": "RoleAdminChanged",
      "type": "event"
    },
    {
      "anonymous": false,
      "inputs": [
        {
          "indexed": true,
          "internalType": "bytes32",
          "name": "role",
          "type": "bytes32"
        },
        {
          "indexed": true,
          "internalType": "address",
          "name": "account",
          "type": "address"
        },
        {
          "indexed": true,
          "internalType": "address",
          "name": "sender",
          "type": "address"
        }
      ],
      "name": "RoleGranted",
      "type": "event"
    },
    {
      "anonymous": false,
      "inputs": [
        {
          "indexed": true,
          "internalType": "bytes32",
          "name": "role",
          "type": "bytes32"
        },
        {
          "indexed": true,
          "internalType": "address",
          "name": "account",
          "type": "address"
        },
        {
          "indexed": true,
          "internalType": "address",
          "name": "sender",
          "type": "address"
        }
      ],
      "name": "RoleRevoked",
      "type": "event"
    },
    {
      "anonymous": false,
      "inputs": [
        {
          "indexed": true,
          "internalType": "address",
          "name": "from",
          "type": "address"
        },
        {
          "indexed": true,
          "internalType": "address",
          "name": "to",
          "type": "address"
        },
        {
          "indexed": false,
          "internalType": "uint256",
          "name": "value",
          "type": "uint256"
        }
      ],
      "name": "Transfer",
      "type": "event"
    },
    {
      "anonymous": false,
      "inputs": [
        {
          "indexed": false,
          "internalType": "address",
          "name": "_from",
          "type": "address"
        },
        {
          "indexed": false,
          "internalType": "address",
          "name": "_to",
          "type": "address"
        },
        {
          "indexed": false,
          "internalType": "uint256",
          "name": "_amount",
          "type": "uint256"
        }
      ],
      "name": "TransferToken",
      "type": "event"
    },
    {
      "inputs": [],
      "name": "CRITICAL_DISTRIBUTOR_ROLE",
      "outputs": [
        {
          "internalType": "bytes32",
          "name": "",
          "type": "bytes32"
        }
      ],
      "stateMutability": "view",
      "type": "function"
    },
    {
      "inputs": [],
      "name": "DEFAULT_ADMIN_ROLE",
      "outputs": [
        {
          "internalType": "bytes32",
          "name": "",
          "type": "bytes32"
        }
      ],
      "stateMutability": "view",
      "type": "function"
    },
    {
      "inputs": [],
      "name": "DISTRIBUTOR_ROLE",
      "outputs": [
        {
          "internalType": "bytes32",
          "name": "",
          "type": "bytes32"
        }
      ],
      "stateMutability": "view",
      "type": "function"
    },
    {
      "inputs": [],
      "name": "TOTAL_SUPPLY",
      "outputs": [
        {
          "internalType": "uint256",
          "name": "",
          "type": "uint256"
        }
      ],
      "stateMutability": "view",
      "type": "function"
    },
    {
      "inputs": [
        {
          "internalType": "address",
          "name": "_distributor",
          "type": "address"
        }
      ],
      "name": "addDistributor",
      "outputs": [],
      "stateMutability": "nonpayable",
      "type": "function"
    },
    {
      "inputs": [
        {
          "internalType": "address",
          "name": "owner",
          "type": "address"
        },
        {
          "internalType": "address",
          "name": "spender",
          "type": "address"
        }
      ],
      "name": "allowance",
      "outputs": [
        {
          "internalType": "uint256",
          "name": "",
          "type": "uint256"
        }
      ],
      "stateMutability": "view",
      "type": "function"
    },
    {
      "inputs": [
        {
          "internalType": "address",
          "name": "spender",
          "type": "address"
        },
        {
          "internalType": "uint256",
          "name": "value",
          "type": "uint256"
        }
      ],
      "name": "approve",
      "outputs": [
        {
          "internalType": "bool",
          "name": "",
          "type": "bool"
        }
      ],
      "stateMutability": "nonpayable",
      "type": "function"
    },
    {
      "inputs": [],
      "name": "availableSupply",
      "outputs": [
        {
          "internalType": "uint256",
          "name": "",
          "type": "uint256"
        }
      ],
      "stateMutability": "view",
      "type": "function"
    },
    {
      "inputs": [
        {
          "internalType": "address",
          "name": "account",
          "type": "address"
        }
      ],
      "name": "balanceOf",
      "outputs": [
        {
          "internalType": "uint256",
          "name": "",
          "type": "uint256"
        }
      ],
      "stateMutability": "view",
      "type": "function"
    },
    {
      "inputs": [
        {
          "internalType": "uint256",
          "name": "_amount",
          "type": "uint256"
        }
      ],
      "name": "burnToken",
      "outputs": [],
      "stateMutability": "nonpayable",
      "type": "function"
    },
    {
      "inputs": [],
      "name": "decimals",
      "outputs": [
        {
          "internalType": "uint8",
          "name": "",
          "type": "uint8"
        }
      ],
      "stateMutability": "view",
      "type": "function"
    },
    {
      "inputs": [
        {
          "internalType": "address",
          "name": "_to",
          "type": "address"
        },
        {
          "internalType": "uint256",
          "name": "_amount",
          "type": "uint256"
        },
        {
          "internalType": "string",
          "name": "_activity",
          "type": "string"
        }
      ],
      "name": "distribute",
      "outputs": [],
      "stateMutability": "nonpayable",
      "type": "function"
    },
    {
      "inputs": [
        {
          "internalType": "bytes32",
          "name": "role",
          "type": "bytes32"
        }
      ],
      "name": "getRoleAdmin",
      "outputs": [
        {
          "internalType": "bytes32",
          "name": "",
          "type": "bytes32"
        }
      ],
      "stateMutability": "view",
      "type": "function"
    },
    {
      "inputs": [
        {
          "internalType": "bytes32",
          "name": "role",
          "type": "bytes32"
        },
        {
          "internalType": "address",
          "name": "account",
          "type": "address"
        }
      ],
      "name": "grantRole",
      "outputs": [],
      "stateMutability": "nonpayable",
      "type": "function"
    },
    {
      "inputs": [
        {
          "internalType": "bytes32",
          "name": "role",
          "type": "bytes32"
        },
        {
          "internalType": "address",
          "name": "account",
          "type": "address"
        }
      ],
      "name": "hasRole",
      "outputs": [
        {
          "internalType": "bool",
          "name": "",
          "type": "bool"
        }
      ],
      "stateMutability": "view",
      "type": "function"
    },
    {
      "inputs": [
        {
          "internalType": "address",
          "name": "_address",
          "type": "address"
        }
      ],
      "name": "isCriticalDistributor",
      "outputs": [
        {
          "internalType": "bool",
          "name": "",
          "type": "bool"
        }
      ],
      "stateMutability": "view",
      "type": "function"
    },
    {
      "inputs": [
        {
          "internalType": "address",
          "name": "_address",
          "type": "address"
        }
      ],
      "name": "isDistributor",
      "outputs": [
        {
          "internalType": "bool",
          "name": "",
          "type": "bool"
        }
      ],
      "stateMutability": "view",
      "type": "function"
    },
    {
      "inputs": [],
      "name": "name",
      "outputs": [
        {
          "internalType": "string",
          "name": "",
          "type": "string"
        }
      ],
      "stateMutability": "view",
      "type": "function"
    },
    {
      "inputs": [
        {
          "internalType": "address",
          "name": "_distributor",
          "type": "address"
        }
      ],
      "name": "removeDistributor",
      "outputs": [],
      "stateMutability": "nonpayable",
      "type": "function"
    },
    {
      "inputs": [
        {
          "internalType": "bytes32",
          "name": "role",
          "type": "bytes32"
        },
        {
          "internalType": "address",
          "name": "callerConfirmation",
          "type": "address"
        }
      ],
      "name": "renounceRole",
      "outputs": [],
      "stateMutability": "nonpayable",
      "type": "function"
    },
    {
      "inputs": [
        {
          "internalType": "bytes32",
          "name": "role",
          "type": "bytes32"
        },
        {
          "internalType": "address",
          "name": "account",
          "type": "address"
        }
      ],
      "name": "revokeRole",
      "outputs": [],
      "stateMutability": "nonpayable",
      "type": "function"
    },
    {
      "inputs": [
        {
          "internalType": "bytes4",
          "name": "interfaceId",
          "type": "bytes4"
        }
      ],
      "name": "supportsInterface",
      "outputs": [
        {
          "internalType": "bool",
          "name": "",
          "type": "bool"
        }
      ],
      "stateMutability": "view",
      "type": "function"
    },
    {
      "inputs": [],
      "name": "symbol",
      "outputs": [
        {
          "internalType": "string",
          "name": "",
          "type": "string"
        }
      ],
      "stateMutability": "view",
      "type": "function"
    },
    {
      "inputs": [],
      "name": "totalSupply",
      "outputs": [
        {
          "internalType": "uint256",
          "name": "",
          "type": "uint256"
        }
      ],
      "stateMutability": "view",
      "type": "function"
    },
    {
      "inputs": [
        {
          "internalType": "address",
          "name": "to",
          "type": "address"
        },
        {
          "internalType": "uint256",
          "name": "value",
          "type": "uint256"
        }
      ],
      "name": "transfer",
      "outputs": [
        {
          "internalType": "bool",
          "name": "",
          "type": "bool"
        }
      ],
      "stateMutability": "nonpayable",
      "type": "function"
    },
    {
      "inputs": [
        {
          "internalType": "address",
          "name": "from",
          "type": "address"
        },
        {
          "internalType": "address",
          "name": "to",
          "type": "address"
        },
        {
          "internalType": "uint256",
          "name": "value",
          "type": "uint256"
        }
      ],
      "name": "transferFrom",
      "outputs": [
        {
          "internalType": "bool",
          "name": "",
          "type": "bool"
        }
      ],
      "stateMutability": "nonpayable",
      "type": "function"
    }
  ],
  "bytecode": "0x608060405234801561000f575f5ffd5b506040516118f33803806118f383398101604081905261002e916104de565b6040518060400160405280600b81526020016a2127ac1898102a37b5b2b760a91b815250604051806040016040528060058152602001640424f5831360dc1b815250816003908161007f91906105b6565b50600461008c82826105b6565b5061009b91505f905084610110565b506100c67ff4431dc137a07147e9f1390d74135e431e22d9d66efe95e4ed70f03a593c1b7283610110565b506100f17ffbd454f36a7e1a388bd6fc3ab10d434aa4578f811acbbcf33afb1c697486313c82610110565b50610108306b033b2e3c9fd0803ce80000006101bd565b50505061068f565b5f8281526005602090815260408083206001600160a01b038516845290915281205460ff166101b4575f8381526005602090815260408083206001600160a01b03861684529091529020805460ff1916600117905561016c3390565b6001600160a01b0316826001600160a01b0316847f2f8788117e7eff1d82e926ec794901d17c78024a50270940304540a733656f0d60405160405180910390a45060016101b7565b505f5b92915050565b6001600160a01b0382166101eb5760405163ec442f0560e01b81525f60048201526024015b60405180910390fd5b6101f65f83836101fa565b5050565b805f0361021a5760405163e320176b60e01b815260040160405180910390fd5b6001600160a01b0383166102845761023383838361039d565b604080516001600160a01b038086168252841660208201529081018290527fb2c0ac17769dc4009cb3bb7bc94bf96c53610105f662c66592910dd10319dcf8906060015b60405180910390a1505050565b6001600160a01b0382166102dc5761029d83838361039d565b604080516001600160a01b0385168152602081018390527fe12923b90d8a6ca7dc57994322d2afba0be75f98e97e2b892fd34c0d7c6229699101610277565b6001600160a01b038316301480159061032c57506001600160a01b0383165f9081527f05b8ccbb9d4d8fb16ea74ce3c29a41f1b461fbdaff4714a0d9a8eb05499746bc602052604090205460ff16155b1561034a5760405163ebc3ca1960e01b815260040160405180910390fd5b61035583838361039d565b604080516001600160a01b038086168252841660208201529081018290527f3844b7075ed6e7d4b61342769cb2b1b325cba410a62932affaa90aee247dadf590606001610277565b6001600160a01b0383166103c7578060025f8282546103bc9190610670565b909155506104379050565b6001600160a01b0383165f90815260208190526040902054818110156104195760405163391434e360e21b81526001600160a01b038516600482015260248101829052604481018390526064016101e2565b6001600160a01b0384165f9081526020819052604090209082900390555b6001600160a01b03821661045357600280548290039055610471565b6001600160a01b0382165f9081526020819052604090208054820190555b816001600160a01b0316836001600160a01b03167fddf252ad1be2c89b69c2b068fc378daa952ba7f163c4a11628f55a4df523b3ef836040516104b691815260200190565b60405180910390a3505050565b80516001600160a01b03811681146104d9575f5ffd5b919050565b5f5f5f606084860312156104f0575f5ffd5b6104f9846104c3565b9250610507602085016104c3565b9150610515604085016104c3565b90509250925092565b634e487b7160e01b5f52604160045260245ffd5b600181811c9082168061054657607f821691505b60208210810361056457634e487b7160e01b5f52602260045260245ffd5b50919050565b601f8211156105b157805f5260205f20601f840160051c8101602085101561058f5750805b601f840160051c820191505b818110156105ae575f815560010161059b565b50505b505050565b81516001600160401b038111156105cf576105cf61051e565b6105e3816105dd8454610532565b8461056a565b6020601f821160018114610615575f83156105fe5750848201515b5f19600385901b1c1916600184901b1784556105ae565b5f84815260208120601f198516915b828110156106445787850151825560209485019460019092019101610624565b508482101561066157868401515f19600387901b60f8161c191681555b50505050600190811b01905550565b808201808211156101b757634e487b7160e01b5f52601160045260245ffd5b6112578061069c5f395ff3fe608060405234801561000f575f5ffd5b5060043610610187575f3560e01c80637b47ec1a116100d957806395d89b4111610093578063d4ede1fa1161006e578063d4ede1fa14610343578063d547741f1461036a578063dd62ed3e1461037d578063f0bd87cc146103b5575f5ffd5b806395d89b4114610321578063a217fddf14610329578063a9059cbb14610330575f5ffd5b80637b47ec1a146102ba5780637ecc2b56146102cd57806383d94115146102d55780638f0c86fa146102e8578063902d55a5146102fb57806391d148541461030e575f5ffd5b80632f2ff15d1161014457806351d9bc151161011f57806351d9bc151461025957806357c1f9e21461026c57806370a082311461027f5780637250e224146102a7575f5ffd5b80632f2ff15d14610222578063313ce5671461023757806336568abe14610246575f5ffd5b806301ffc9a71461018b57806306fdde03146101b3578063095ea7b3146101c857806318160ddd146101db57806323b872dd146101ed578063248a9ca314610200575b5f5ffd5b61019e610199366004610e4f565b6103c9565b60405190151581526020015b60405180910390f35b6101bb6103ff565b6040516101aa9190610e7d565b61019e6101d6366004610ecd565b61048f565b6002545b6040519081526020016101aa565b61019e6101fb366004610ef5565b6104a6565b6101df61020e366004610f2f565b5f9081526005602052604090206001015490565b610235610230366004610f46565b6104c9565b005b604051601281526020016101aa565b610235610254366004610f46565b6104f3565b61019e610267366004610f70565b61052b565b61023561027a366004610f70565b610556565b6101df61028d366004610f70565b6001600160a01b03165f9081526020819052604090205490565b6102356102b5366004610f70565b6105e3565b6102356102c8366004610f2f565b61066a565b6101df6106d0565b6102356102e3366004610f89565b6106fb565b61019e6102f6366004610f70565b6107d2565b6101df6b033b2e3c9fd0803ce800000081565b61019e61031c366004610f46565b6107e6565b6101bb610810565b6101df5f81565b61019e61033e366004610ecd565b61081f565b6101df7ff4431dc137a07147e9f1390d74135e431e22d9d66efe95e4ed70f03a593c1b7281565b610235610378366004610f46565b61082c565b6101df61038b36600461100c565b6001600160a01b039182165f90815260016020908152604080832093909416825291909152205490565b6101df5f5160206112025f395f51905f5281565b5f6001600160e01b03198216637965db0b60e01b14806103f957506301ffc9a760e01b6001600160e01b03198316145b92915050565b60606003805461040e90611034565b80601f016020809104026020016040519081016040528092919081815260200182805461043a90611034565b80156104855780601f1061045c57610100808354040283529160200191610485565b820191905f5260205f20905b81548152906001019060200180831161046857829003601f168201915b5050505050905090565b5f3361049c818585610850565b5060019392505050565b5f336104b385828561085d565b6104be8585856108d8565b506001949350505050565b5f828152600560205260409020600101546104e381610935565b6104ed8383610942565b50505050565b6001600160a01b038116331461051c5760405163334bd91960e11b815260040160405180910390fd5b61052682826109d3565b505050565b5f6103f97ff4431dc137a07147e9f1390d74135e431e22d9d66efe95e4ed70f03a593c1b72836107e6565b5f61056081610935565b6001600160a01b0382166105875760405163bf8d717560e01b815260040160405180910390fd5b61059e5f5160206112025f395f51905f528361082c565b604080513381526001600160a01b03841660208201527e433ff4289aa57c76638307bc068f9ec76982cab3cece912b9d564c4e06318391015b60405180910390a15050565b5f6105ed81610935565b6001600160a01b0382166106145760405163bf8d717560e01b815260040160405180910390fd5b61062b5f5160206112025f395f51905f5283610942565b50604080513381526001600160a01b03841660208201527f70f215558b827d26ce44f64adab898befc5d0b55fbdc13ee46ab08cad4b8f16a91016105d7565b805f0361068a5760405163e320176b60e01b815260040160405180910390fd5b6106943382610a3e565b60408051338152602081018390527fe12923b90d8a6ca7dc57994322d2afba0be75f98e97e2b892fd34c0d7c622969910160405180910390a150565b5f6106dd6012600a611163565b305f908152602081905260409020546106f69190611171565b905090565b5f5160206112025f395f51905f5261071281610935565b6001600160a01b0385166107395760405163bf8d717560e01b815260040160405180910390fd5b5f6107466012600a611163565b6107509086611190565b305f9081526020819052604090205490915081111561078257604051631e9acf1760e31b815260040160405180910390fd5b61078d3087836108d8565b7fdafcda07c08a2f890abf30017a2ce92065123d57e432e156d97ba7721a4d4ba5868686866040516107c294939291906111a7565b60405180910390a1505050505050565b5f6103f95f5160206112025f395f51905f52835b5f9182526005602090815260408084206001600160a01b0393909316845291905290205460ff1690565b60606004805461040e90611034565b5f3361049c8185856108d8565b5f8281526005602052604090206001015461084681610935565b6104ed83836109d3565b6105268383836001610a76565b6001600160a01b038381165f908152600160209081526040808320938616835292905220545f198110156104ed57818110156108ca57604051637dc7a0d960e11b81526001600160a01b038416600482015260248101829052604481018390526064015b60405180910390fd5b6104ed84848484035f610a76565b6001600160a01b03831661090157604051634b637e8f60e11b81525f60048201526024016108c1565b6001600160a01b03821661092a5760405163ec442f0560e01b81525f60048201526024016108c1565b610526838383610aab565b61093f8133610c1e565b50565b5f61094d83836107e6565b6109cc575f8381526005602090815260408083206001600160a01b03861684529091529020805460ff191660011790556109843390565b6001600160a01b0316826001600160a01b0316847f2f8788117e7eff1d82e926ec794901d17c78024a50270940304540a733656f0d60405160405180910390a45060016103f9565b505f6103f9565b5f6109de83836107e6565b156109cc575f8381526005602090815260408083206001600160a01b0386168085529252808320805460ff1916905551339286917ff6391f5c32d9c69d2a47ea670b442974b53935d1edc7fd64eb21e047a839171b9190a45060016103f9565b6001600160a01b038216610a6757604051634b637e8f60e11b81525f60048201526024016108c1565b610a72825f83610aab565b5050565b6001600160a01b0384163014610a9f576040516386d03c1160e01b815260040160405180910390fd5b6104ed84848484610c57565b805f03610acb5760405163e320176b60e01b815260040160405180910390fd5b6001600160a01b038316610b3557610ae4838383610d29565b604080516001600160a01b038086168252841660208201529081018290527fb2c0ac17769dc4009cb3bb7bc94bf96c53610105f662c66592910dd10319dcf8906060015b60405180910390a1505050565b6001600160a01b038216610b8d57610b4e838383610d29565b604080516001600160a01b0385168152602081018390527fe12923b90d8a6ca7dc57994322d2afba0be75f98e97e2b892fd34c0d7c6229699101610b28565b6001600160a01b0383163014801590610bad5750610bab5f846107e6565b155b15610bcb5760405163ebc3ca1960e01b815260040160405180910390fd5b610bd6838383610d29565b604080516001600160a01b038086168252841660208201529081018290527f3844b7075ed6e7d4b61342769cb2b1b325cba410a62932affaa90aee247dadf590606001610b28565b610c2882826107e6565b610a725760405163e2517d3f60e01b81526001600160a01b0382166004820152602481018390526044016108c1565b6001600160a01b038416610c805760405163e602df0560e01b81525f60048201526024016108c1565b6001600160a01b038316610ca957604051634a1406b160e11b81525f60048201526024016108c1565b6001600160a01b038085165f90815260016020908152604080832093871683529290522082905580156104ed57826001600160a01b0316846001600160a01b03167f8c5be1e5ebec7d5bd14f71427d1e84f3dd0314c0f7b2291e5b200ac8c7c3b92584604051610d1b91815260200190565b60405180910390a350505050565b6001600160a01b038316610d53578060025f828254610d4891906111ee565b90915550610dc39050565b6001600160a01b0383165f9081526020819052604090205481811015610da55760405163391434e360e21b81526001600160a01b038516600482015260248101829052604481018390526064016108c1565b6001600160a01b0384165f9081526020819052604090209082900390555b6001600160a01b038216610ddf57600280548290039055610dfd565b6001600160a01b0382165f9081526020819052604090208054820190555b816001600160a01b0316836001600160a01b03167fddf252ad1be2c89b69c2b068fc378daa952ba7f163c4a11628f55a4df523b3ef83604051610e4291815260200190565b60405180910390a3505050565b5f60208284031215610e5f575f5ffd5b81356001600160e01b031981168114610e76575f5ffd5b9392505050565b602081525f82518060208401528060208501604085015e5f604082850101526040601f19601f83011684010191505092915050565b80356001600160a01b0381168114610ec8575f5ffd5b919050565b5f5f60408385031215610ede575f5ffd5b610ee783610eb2565b946020939093013593505050565b5f5f5f60608486031215610f07575f5ffd5b610f1084610eb2565b9250610f1e60208501610eb2565b929592945050506040919091013590565b5f60208284031215610f3f575f5ffd5b5035919050565b5f5f60408385031215610f57575f5ffd5b82359150610f6760208401610eb2565b90509250929050565b5f60208284031215610f80575f5ffd5b610e7682610eb2565b5f5f5f5f60608587031215610f9c575f5ffd5b610fa585610eb2565b935060208501359250604085013567ffffffffffffffff811115610fc7575f5ffd5b8501601f81018713610fd7575f5ffd5b803567ffffffffffffffff811115610fed575f5ffd5b876020828401011115610ffe575f5ffd5b949793965060200194505050565b5f5f6040838503121561101d575f5ffd5b61102683610eb2565b9150610f6760208401610eb2565b600181811c9082168061104857607f821691505b60208210810361106657634e487b7160e01b5f52602260045260245ffd5b50919050565b634e487b7160e01b5f52601160045260245ffd5b6001815b60018411156110bb5780850481111561109f5761109f61106c565b60018416156110ad57908102905b60019390931c928002611084565b935093915050565b5f826110d1575060016103f9565b816110dd57505f6103f9565b81600181146110f357600281146110fd57611119565b60019150506103f9565b60ff84111561110e5761110e61106c565b50506001821b6103f9565b5060208310610133831016604e8410600b841016171561113c575081810a6103f9565b6111485f198484611080565b805f190482111561115b5761115b61106c565b029392505050565b5f610e7660ff8416836110c3565b5f8261118b57634e487b7160e01b5f52601260045260245ffd5b500490565b80820281158282048414176103f9576103f961106c565b6001600160a01b0385168152602081018490526060604082018190528101829052818360808301375f818301608090810191909152601f909201601f191601019392505050565b808201808211156103f9576103f961106c56fefbd454f36a7e1a388bd6fc3ab10d434aa4578f811acbbcf33afb1c697486313ca2646970667358221220a57d8803bae4f9e7728434e6345d607842e48e294816e219140e96a89a45b20d64736f6c634300081e0033",
  "linkReferences": {},
  "deployedLinkReferences": {},
  "immutableReferences": {},
  "inputSourceName": "project/contracts/Box10.sol",
  "buildInfoId": "solc-0_8_30-50f7eb06edf4ed8735ee8cce4290c2cc4cc152b3"
}